{
  "_format": "hh-sol-artifact-1",
  "contractName": "Library",
  "sourceName": "contracts/Library.sol",
  "abi": [
    {
      "anonymous": false,
      "inputs": [
        {
          "indexed": false,
          "internalType": "address",
          "name": "recipient",
          "type": "address"
        },
        {
          "indexed": false,
          "internalType": "uint256",
          "name": "bookId",
          "type": "uint256"
        }
      ],
      "name": "AddBook",
      "type": "event"
    },
    {
      "anonymous": false,
      "inputs": [
        {
          "indexed": false,
          "internalType": "uint256",
          "name": "bookId",
          "type": "uint256"
        },
        {
          "indexed": false,
          "internalType": "bool",
          "name": "finished",
          "type": "bool"
        }
      ],
      "name": "SetFinished",
      "type": "event"
    },
    {
      "inputs": [
        {
          "internalType": "string",
          "name": "name",
          "type": "string"
        },
        {
          "internalType": "uint16",
          "name": "year",
          "type": "uint16"
        },
        {
          "internalType": "string",
          "name": "author",
          "type": "string"
        },
        {
          "internalType": "bool",
          "name": "finished",
          "type": "bool"
        }
      ],
      "name": "addBook",
      "outputs": [],
      "stateMutability": "nonpayable",
      "type": "function"
    },
    {
      "inputs": [],
      "name": "getFinishedBooks",
      "outputs": [
        {
          "components": [
            {
              "internalType": "uint256",
              "name": "id",
              "type": "uint256"
            },
            {
              "internalType": "string",
              "name": "name",
              "type": "string"
            },
            {
              "internalType": "uint256",
              "name": "year",
              "type": "uint256"
            },
            {
              "internalType": "string",
              "name": "author",
              "type": "string"
            },
            {
              "internalType": "bool",
              "name": "finished",
              "type": "bool"
            }
          ],
          "internalType": "struct Library.Book[]",
          "name": "",
          "type": "tuple[]"
        }
      ],
      "stateMutability": "view",
      "type": "function"
    },
    {
      "inputs": [],
      "name": "getUnfinishedBooks",
      "outputs": [
        {
          "components": [
            {
              "internalType": "uint256",
              "name": "id",
              "type": "uint256"
            },
            {
              "internalType": "string",
              "name": "name",
              "type": "string"
            },
            {
              "internalType": "uint256",
              "name": "year",
              "type": "uint256"
            },
            {
              "internalType": "string",
              "name": "author",
              "type": "string"
            },
            {
              "internalType": "bool",
              "name": "finished",
              "type": "bool"
            }
          ],
          "internalType": "struct Library.Book[]",
          "name": "",
          "type": "tuple[]"
        }
      ],
      "stateMutability": "view",
      "type": "function"
    },
    {
      "inputs": [
        {
          "internalType": "uint256",
          "name": "bookId",
          "type": "uint256"
        },
        {
          "internalType": "bool",
          "name": "finished",
          "type": "bool"
        }
      ],
      "name": "setFinished",
      "outputs": [],
      "stateMutability": "nonpayable",
      "type": "function"
    }
  ],
  "bytecode": "0x608060405234801561001057600080fd5b50610e6a806100206000396000f3fe608060405234801561001057600080fd5b506004361061004c5760003560e01c80636aa835a81461005157806376d9e5a01461006d578063c079766d1461008b578063f2bc01ff146100a7575b600080fd5b61006b60048036038101906100669190610815565b6100c5565b005b6100756101a7565b6040516100829190610a4b565b60405180910390f35b6100a560048036038101906100a09190610bdc565b6101b8565b005b6100af61031b565b6040516100bc9190610a4b565b60405180910390f35b3373ffffffffffffffffffffffffffffffffffffffff166001600084815260200190815260200160002060009054906101000a900473ffffffffffffffffffffffffffffffffffffffff1673ffffffffffffffffffffffffffffffffffffffff1614156101a357806000838154811061014157610140610c7b565b5b906000526020600020906005020160040160006101000a81548160ff0219169083151502179055507fa4f349f92993cc89f62be8c4bead1bd7d76d2e9c4d05da59739c6e0dd75f042c828260405161019a929190610cc8565b60405180910390a15b5050565b60606101b3600161032c565b905090565b60008080549050905060006040518060a001604052808381526020018781526020018661ffff168152602001858152602001841515815250908060018154018082558091505060019003906000526020600020906005020160009091909190915060008201518160000155602082015181600101908051906020019061023f9291906106bf565b506040820151816002015560608201518160030190805190602001906102669291906106bf565b5060808201518160040160006101000a81548160ff0219169083151502179055505050336001600083815260200190815260200160002060006101000a81548173ffffffffffffffffffffffffffffffffffffffff021916908373ffffffffffffffffffffffffffffffffffffffff1602179055507f10545577c692a22f651e69221c47ad4418e40434b36f4e2411bc54007aa8cbb9338260405161030c929190610d32565b60405180910390a15050505050565b6060610327600061032c565b905090565b60606000808054905067ffffffffffffffff81111561034e5761034d610a77565b5b60405190808252806020026020018201604052801561038757816020015b610374610745565b81526020019060019003908161036c5790505b5090506000805b600080549050811015610603573373ffffffffffffffffffffffffffffffffffffffff166001600083815260200190815260200160002060009054906101000a900473ffffffffffffffffffffffffffffffffffffffff1673ffffffffffffffffffffffffffffffffffffffff1614801561043e57508415156000828154811061041b5761041a610c7b565b5b906000526020600020906005020160040160009054906101000a900460ff161515145b156105f0576000818154811061045757610456610c7b565b5b90600052602060002090600502016040518060a00160405290816000820154815260200160018201805461048a90610d8a565b80601f01602080910402602001604051908101604052809291908181526020018280546104b690610d8a565b80156105035780601f106104d857610100808354040283529160200191610503565b820191906000526020600020905b8154815290600101906020018083116104e657829003601f168201915b505050505081526020016002820154815260200160038201805461052690610d8a565b80601f016020809104026020016040519081016040528092919081815260200182805461055290610d8a565b801561059f5780601f106105745761010080835404028352916020019161059f565b820191906000526020600020905b81548152906001019060200180831161058257829003601f168201915b505050505081526020016004820160009054906101000a900460ff1615151515815250508383815181106105d6576105d5610c7b565b5b602002602001018190525081806105ec90610deb565b9250505b80806105fb90610deb565b91505061038e565b5060008167ffffffffffffffff8111156106205761061f610a77565b5b60405190808252806020026020018201604052801561065957816020015b610646610745565b81526020019060019003908161063e5790505b50905060005b828110156106b35783818151811061067a57610679610c7b565b5b602002602001015182828151811061069557610694610c7b565b5b602002602001018190525080806106ab90610deb565b91505061065f565b50809350505050919050565b8280546106cb90610d8a565b90600052602060002090601f0160209004810192826106ed5760008555610734565b82601f1061070657805160ff1916838001178555610734565b82800160010185558215610734579182015b82811115610733578251825591602001919060010190610718565b5b5090506107419190610776565b5090565b6040518060a00160405280600081526020016060815260200160008152602001606081526020016000151581525090565b5b8082111561078f576000816000905550600101610777565b5090565b6000604051905090565b600080fd5b600080fd5b6000819050919050565b6107ba816107a7565b81146107c557600080fd5b50565b6000813590506107d7816107b1565b92915050565b60008115159050919050565b6107f2816107dd565b81146107fd57600080fd5b50565b60008135905061080f816107e9565b92915050565b6000806040838503121561082c5761082b61079d565b5b600061083a858286016107c8565b925050602061084b85828601610800565b9150509250929050565b600081519050919050565b600082825260208201905092915050565b6000819050602082019050919050565b61088a816107a7565b82525050565b600081519050919050565b600082825260208201905092915050565b60005b838110156108ca5780820151818401526020810190506108af565b838111156108d9576000848401525b50505050565b6000601f19601f8301169050919050565b60006108fb82610890565b610905818561089b565b93506109158185602086016108ac565b61091e816108df565b840191505092915050565b610932816107dd565b82525050565b600060a0830160008301516109506000860182610881565b506020830151848203602086015261096882826108f0565b915050604083015161097d6040860182610881565b506060830151848203606086015261099582826108f0565b91505060808301516109aa6080860182610929565b508091505092915050565b60006109c18383610938565b905092915050565b6000602082019050919050565b60006109e182610855565b6109eb8185610860565b9350836020820285016109fd85610871565b8060005b85811015610a395784840389528151610a1a85826109b5565b9450610a25836109c9565b925060208a01995050600181019050610a01565b50829750879550505050505092915050565b60006020820190508181036000830152610a6581846109d6565b905092915050565b600080fd5b600080fd5b7f4e487b7100000000000000000000000000000000000000000000000000000000600052604160045260246000fd5b610aaf826108df565b810181811067ffffffffffffffff82111715610ace57610acd610a77565b5b80604052505050565b6000610ae1610793565b9050610aed8282610aa6565b919050565b600067ffffffffffffffff821115610b0d57610b0c610a77565b5b610b16826108df565b9050602081019050919050565b82818337600083830152505050565b6000610b45610b4084610af2565b610ad7565b905082815260208101848484011115610b6157610b60610a72565b5b610b6c848285610b23565b509392505050565b600082601f830112610b8957610b88610a6d565b5b8135610b99848260208601610b32565b91505092915050565b600061ffff82169050919050565b610bb981610ba2565b8114610bc457600080fd5b50565b600081359050610bd681610bb0565b92915050565b60008060008060808587031215610bf657610bf561079d565b5b600085013567ffffffffffffffff811115610c1457610c136107a2565b5b610c2087828801610b74565b9450506020610c3187828801610bc7565b935050604085013567ffffffffffffffff811115610c5257610c516107a2565b5b610c5e87828801610b74565b9250506060610c6f87828801610800565b91505092959194509250565b7f4e487b7100000000000000000000000000000000000000000000000000000000600052603260045260246000fd5b610cb3816107a7565b82525050565b610cc2816107dd565b82525050565b6000604082019050610cdd6000830185610caa565b610cea6020830184610cb9565b9392505050565b600073ffffffffffffffffffffffffffffffffffffffff82169050919050565b6000610d1c82610cf1565b9050919050565b610d2c81610d11565b82525050565b6000604082019050610d476000830185610d23565b610d546020830184610caa565b9392505050565b7f4e487b7100000000000000000000000000000000000000000000000000000000600052602260045260246000fd5b60006002820490506001821680610da257607f821691505b60208210811415610db657610db5610d5b565b5b50919050565b7f4e487b7100000000000000000000000000000000000000000000000000000000600052601160045260246000fd5b6000610df6826107a7565b91507fffffffffffffffffffffffffffffffffffffffffffffffffffffffffffffffff821415610e2957610e28610dbc565b5b60018201905091905056fea264697066735822122062e75c34149cf648ea177f32bb17b2477450ff40e92891842f1e07420f94dbe464736f6c63430008090033",
  "linkReferences": {},
  "deployedLinkReferences": {}
}